{"abi":[{"type":"constructor","inputs":[{"name":"_asset","type":"address","internalType":"address"}],"stateMutability":"nonpayable"},{"type":"function","name":"AllBalance","inputs":[],"outputs":[{"name":"","type":"uint256","internalType":"uint256"}],"stateMutability":"view"},{"type":"function","name":"AllBorrowed","inputs":[],"outputs":[{"name":"","type":"uint256","internalType":"uint256"}],"stateMutability":"view"},{"type":"function","name":"assetLiquidation","inputs":[],"outputs":[],"stateMutability":"nonpayable"},{"type":"function","name":"borrow","inputs":[{"name":"_amount","type":"uint256","internalType":"uint256"}],"outputs":[],"stateMutability":"nonpayable"},{"type":"function","name":"calAllProfi","inputs":[],"outputs":[{"name":"","type":"uint256","internalType":"uint256"}],"stateMutability":"view"},{"type":"function","name":"calAllProfit","inputs":[],"outputs":[{"name":"","type":"uint256","internalType":"uint256"}],"stateMutability":"view"},{"type":"function","name":"calBorrowedAndProfit","inputs":[],"outputs":[{"name":"","type":"uint256","internalType":"uint256"}],"stateMutability":"view"},{"type":"function","name":"calProfitRate","inputs":[],"outputs":[{"name":"","type":"uint256","internalType":"uint256"}],"stateMutability":"view"},{"type":"function","name":"calProfitRatePerSecond","inputs":[],"outputs":[{"name":"","type":"uint256","internalType":"uint256"}],"stateMutability":"view"},{"type":"function","name":"calProfitReal","inputs":[],"outputs":[{"name":"","type":"uint256","internalType":"uint256"}],"stateMutability":"view"},{"type":"function","name":"calUserBonus","inputs":[],"outputs":[],"stateMutability":"nonpayable"},{"type":"function","name":"deposit","inputs":[{"name":"_amount","type":"uint256","internalType":"uint256"}],"outputs":[],"stateMutability":"nonpayable"},{"type":"function","name":"index","inputs":[],"outputs":[{"name":"","type":"uint256","internalType":"uint256"}],"stateMutability":"view"},{"type":"function","name":"indexBorrowed","inputs":[{"name":"","type":"address","internalType":"address"},{"name":"","type":"uint256","internalType":"uint256"}],"outputs":[{"name":"","type":"uint256","internalType":"uint256"}],"stateMutability":"view"},{"type":"function","name":"liquidationCondition","inputs":[],"outputs":[{"name":"","type":"bool","internalType":"bool"}],"stateMutability":"view"},{"type":"function","name":"liquidationConditionFactor","inputs":[],"outputs":[{"name":"","type":"uint256","internalType":"uint256"}],"stateMutability":"view"},{"type":"function","name":"payDebt","inputs":[{"name":"_amount","type":"uint256","internalType":"uint256"}],"outputs":[],"stateMutability":"nonpayable"},{"type":"function","name":"profitStructSort","inputs":[{"name":"","type":"uint256","internalType":"uint256"}],"outputs":[{"name":"starTime","type":"uint256","internalType":"uint256"},{"name":"endTime","type":"uint256","internalType":"uint256"},{"name":"ratePerSecond","type":"uint256","internalType":"uint256"}],"stateMutability":"view"}],"bytecode":{"object":"0x608060405234801561000f575f5ffd5b5060405161153e38038061153e833981810160405281019061003191906100dc565b8060045f6101000a81548173ffffffffffffffffffffffffffffffffffffffff021916908373ffffffffffffffffffffffffffffffffffffffff1602179055505f60018190555050610107565b5f5ffd5b5f73ffffffffffffffffffffffffffffffffffffffff82169050919050565b5f6100ab82610082565b9050919050565b6100bb816100a1565b81146100c5575f5ffd5b50565b5f815190506100d6816100b2565b92915050565b5f602082840312156100f1576100f061007e565b5b5f6100fe848285016100c8565b91505092915050565b61142a806101145f395ff3fe608060405234801561000f575f5ffd5b5060043610610114575f3560e01c80638ba5ea3d116100a0578063bc5efb781161006f578063bc5efb7814610298578063c5ebeaec146102b6578063c8bf2854146102d2578063c9ca3343146102f0578063e6e748821461030e57610114565b80638ba5ea3d14610224578063974a9c291461022e578063afe19fa51461025e578063b6b55f251461027c57610114565b80632986c0e5116100e75780632986c0e51461018e5780634bce98b8146101ac578063618adc77146101ca5780636af84138146101fc5780637c2e0fe21461021a57610114565b806316fc3297146101185780631ec834271461013457806320d5ed5e146101525780632470f97c14610170575b5f5ffd5b610132600480360381019061012d9190610f89565b61032c565b005b61013c6105cd565b6040516101499190610fc3565b60405180910390f35b61015a610683565b6040516101679190610fc3565b60405180910390f35b610178610689565b6040516101859190610fc3565b60405180910390f35b6101966106c9565b6040516101a39190610fc3565b60405180910390f35b6101b46106cf565b6040516101c19190610fc3565b60405180910390f35b6101e460048036038101906101df9190610f89565b61084f565b6040516101f393929190610fdc565b60405180910390f35b610204610875565b6040516102119190610fc3565b60405180910390f35b6102226109f5565b005b61022c6109f7565b005b6102486004803603810190610243919061106b565b6109f9565b6040516102559190610fc3565b60405180910390f35b610266610a19565b60405161027391906110c3565b60405180910390f35b61029660048036038101906102919190610f89565b610a41565b005b6102a0610bd2565b6040516102ad9190610fc3565b60405180910390f35b6102d060048036038101906102cb9190610f89565b610bf3565b005b6102da610eda565b6040516102e79190610fc3565b60405180910390f35b6102f8610ee0565b6040516103059190610fc3565b60405180910390f35b610316610efc565b6040516103239190610fc3565b60405180910390f35b60015f81548092919061033e90611109565b91905055508060085f3373ffffffffffffffffffffffffffffffffffffffff1673ffffffffffffffffffffffffffffffffffffffff1681526020019081526020015f205410156103c3576040517f08c379a00000000000000000000000000000000000000000000000000000000081526004016103ba906111aa565b60405180910390fd5b60045f9054906101000a900473ffffffffffffffffffffffffffffffffffffffff1673ffffffffffffffffffffffffffffffffffffffff166323b872dd3330846040518463ffffffff1660e01b8152600401610421939291906111d7565b6020604051808303815f875af115801561043d573d5f5f3e3d5ffd5b505050506040513d601f19601f820116820180604052508101906104619190611236565b504260025f600180546104749190611261565b81526020019081526020015f20600101819055504260025f60015481526020019081526020015f205f01819055506104aa610ee0565b60025f600180546104bb9190611261565b81526020019081526020015f20600201819055508060085f3373ffffffffffffffffffffffffffffffffffffffff1673ffffffffffffffffffffffffffffffffffffffff1681526020019081526020015f205f82825461051b9190611261565b925050819055508060065f8282546105339190611261565b9250508190555060085f3373ffffffffffffffffffffffffffffffffffffffff1673ffffffffffffffffffffffffffffffffffffffff1681526020019081526020015f205460035f3373ffffffffffffffffffffffffffffffffffffffff1673ffffffffffffffffffffffffffffffffffffffff1681526020019081526020015f205f60015481526020019081526020015f208190555050565b5f5f60075f3373ffffffffffffffffffffffffffffffffffffffff1673ffffffffffffffffffffffffffffffffffffffff1681526020019081526020015f205460085f3373ffffffffffffffffffffffffffffffffffffffff1673ffffffffffffffffffffffffffffffffffffffff1681526020019081526020015f2054610653610bd2565b61065d9190611294565b678ac7230489e8000061067091906112c7565b61067a9190611335565b90508091505090565b60055481565b5f5f6005540361069b575f90506106c6565b5f600554600654678ac7230489e800006106b591906112c7565b6106bf9190611335565b9050809150505b90565b60015481565b5f5f5f600190505b6001548111610847575f60015482036107795760025f8381526020019081526020015f205f0154426107099190611261565b610711610ee0565b60035f3373ffffffffffffffffffffffffffffffffffffffff1673ffffffffffffffffffffffffffffffffffffffff1681526020019081526020015f205f8581526020019081526020015f205461076891906112c7565b61077291906112c7565b9050610825565b60025f8381526020019081526020015f205f015460025f8481526020019081526020015f20600101546107ac9190611261565b60025f8481526020019081526020015f206002015460035f3373ffffffffffffffffffffffffffffffffffffffff1673ffffffffffffffffffffffffffffffffffffffff1681526020019081526020015f205f8581526020019081526020015f205461081891906112c7565b61082291906112c7565b90505b80836108319190611294565b925050808061083f90611109565b9150506106d7565b508091505090565b6002602052805f5260405f205f91509050805f0154908060010154908060020154905083565b5f5f5f600190505b60015481116109ed575f600154820361091f5760025f8381526020019081526020015f205f0154426108af9190611261565b6108b7610ee0565b60035f3373ffffffffffffffffffffffffffffffffffffffff1673ffffffffffffffffffffffffffffffffffffffff1681526020019081526020015f205f8581526020019081526020015f205461090e91906112c7565b61091891906112c7565b90506109cb565b60025f8381526020019081526020015f205f015460025f8481526020019081526020015f20600101546109529190611261565b60025f8481526020019081526020015f206002015460035f3373ffffffffffffffffffffffffffffffffffffffff1673ffffffffffffffffffffffffffffffffffffffff1681526020019081526020015f205f8581526020019081526020015f20546109be91906112c7565b6109c891906112c7565b90505b80836109d79190611294565b92505080806109e590611109565b91505061087d565b508091505090565b565b565b6003602052815f5260405f20602052805f5260405f205f91509150505481565b5f676f05b59d3b200000610a2b6105cd565b1115610a3a5760019050610a3e565b5f90505b90565b60015f815480929190610a5390611109565b919050555060045f9054906101000a900473ffffffffffffffffffffffffffffffffffffffff1673ffffffffffffffffffffffffffffffffffffffff166323b872dd3330846040518463ffffffff1660e01b8152600401610ab6939291906111d7565b6020604051808303815f875af1158015610ad2573d5f5f3e3d5ffd5b505050506040513d601f19601f82011682018060405250810190610af69190611236565b504260025f60018054610b099190611261565b81526020019081526020015f20600101819055504260025f60015481526020019081526020015f205f0181905550610b3f610ee0565b60025f60018054610b509190611261565b81526020019081526020015f20600201819055508060075f3373ffffffffffffffffffffffffffffffffffffffff1673ffffffffffffffffffffffffffffffffffffffff1681526020019081526020015f205f828254610bb09190611294565b925050819055508060055f828254610bc89190611294565b9250508190555050565b5f678ac7230489e80000610be4610875565b610bee9190611335565b905090565b60015f815480929190610c0590611109565b919050555060075f3373ffffffffffffffffffffffffffffffffffffffff1673ffffffffffffffffffffffffffffffffffffffff1681526020019081526020015f20548160085f3373ffffffffffffffffffffffffffffffffffffffff1673ffffffffffffffffffffffffffffffffffffffff1681526020019081526020015f2054610c919190611294565b1115610cd2576040517f08c379a0000000000000000000000000000000000000000000000000000000008152600401610cc9906113af565b60405180910390fd5b60045f9054906101000a900473ffffffffffffffffffffffffffffffffffffffff1673ffffffffffffffffffffffffffffffffffffffff1663a9059cbb33836040518363ffffffff1660e01b8152600401610d2e9291906113cd565b6020604051808303815f875af1158015610d4a573d5f5f3e3d5ffd5b505050506040513d601f19601f82011682018060405250810190610d6e9190611236565b504260025f60018054610d819190611261565b81526020019081526020015f20600101819055504260025f60015481526020019081526020015f205f0181905550610db7610ee0565b60025f60018054610dc89190611261565b81526020019081526020015f20600201819055508060085f3373ffffffffffffffffffffffffffffffffffffffff1673ffffffffffffffffffffffffffffffffffffffff1681526020019081526020015f205f828254610e289190611294565b925050819055508060065f828254610e409190611294565b9250508190555060085f3373ffffffffffffffffffffffffffffffffffffffff1673ffffffffffffffffffffffffffffffffffffffff1681526020019081526020015f205460035f3373ffffffffffffffffffffffffffffffffffffffff1673ffffffffffffffffffffffffffffffffffffffff1681526020019081526020015f205f60015481526020019081526020015f208190555050565b60065481565b5f62015180610eed610689565b610ef79190611335565b905090565b5f610f05610bd2565b60085f3373ffffffffffffffffffffffffffffffffffffffff1673ffffffffffffffffffffffffffffffffffffffff1681526020019081526020015f2054610f4d9190611294565b905090565b5f5ffd5b5f819050919050565b610f6881610f56565b8114610f72575f5ffd5b50565b5f81359050610f8381610f5f565b92915050565b5f60208284031215610f9e57610f9d610f52565b5b5f610fab84828501610f75565b91505092915050565b610fbd81610f56565b82525050565b5f602082019050610fd65f830184610fb4565b92915050565b5f606082019050610fef5f830186610fb4565b610ffc6020830185610fb4565b6110096040830184610fb4565b949350505050565b5f73ffffffffffffffffffffffffffffffffffffffff82169050919050565b5f61103a82611011565b9050919050565b61104a81611030565b8114611054575f5ffd5b50565b5f8135905061106581611041565b92915050565b5f5f6040838503121561108157611080610f52565b5b5f61108e85828601611057565b925050602061109f85828601610f75565b9150509250929050565b5f8115159050919050565b6110bd816110a9565b82525050565b5f6020820190506110d65f8301846110b4565b92915050565b7f4e487b71000000000000000000000000000000000000000000000000000000005f52601160045260245ffd5b5f61111382610f56565b91507fffffffffffffffffffffffffffffffffffffffffffffffffffffffffffffffff8203611145576111446110dc565b5b600182019050919050565b5f82825260208201905092915050565b7f776861742061726520796f7520646f696e673f000000000000000000000000005f82015250565b5f611194601383611150565b915061119f82611160565b602082019050919050565b5f6020820190508181035f8301526111c181611188565b9050919050565b6111d181611030565b82525050565b5f6060820190506111ea5f8301866111c8565b6111f760208301856111c8565b6112046040830184610fb4565b949350505050565b611215816110a9565b811461121f575f5ffd5b50565b5f815190506112308161120c565b92915050565b5f6020828403121561124b5761124a610f52565b5b5f61125884828501611222565b91505092915050565b5f61126b82610f56565b915061127683610f56565b925082820390508181111561128e5761128d6110dc565b5b92915050565b5f61129e82610f56565b91506112a983610f56565b92508282019050808211156112c1576112c06110dc565b5b92915050565b5f6112d182610f56565b91506112dc83610f56565b92508282026112ea81610f56565b91508282048414831517611301576113006110dc565b5b5092915050565b7f4e487b71000000000000000000000000000000000000000000000000000000005f52601260045260245ffd5b5f61133f82610f56565b915061134a83610f56565b92508261135a57611359611308565b5b828204905092915050565b7f6675636b000000000000000000000000000000000000000000000000000000005f82015250565b5f611399600483611150565b91506113a482611365565b602082019050919050565b5f6020820190508181035f8301526113c68161138d565b9050919050565b5f6040820190506113e05f8301856111c8565b6113ed6020830184610fb4565b939250505056fea2646970667358221220cfa58e8d522a9973a96dcab3aa65b992786cacb92b80adc97717c9ea0235fed964736f6c634300081e0033","linkReferences":{}},"methodIdentifiers":{"AllBalance()":"20d5ed5e","AllBorrowed()":"c8bf2854","assetLiquidation()":"8ba5ea3d","borrow(uint256)":"c5ebeaec","calAllProfi()":"4bce98b8","calAllProfit()":"6af84138","calBorrowedAndProfit()":"e6e74882","calProfitRate()":"2470f97c","calProfitRatePerSecond()":"c9ca3343","calProfitReal()":"bc5efb78","calUserBonus()":"7c2e0fe2","deposit(uint256)":"b6b55f25","index()":"2986c0e5","indexBorrowed(address,uint256)":"974a9c29","liquidationCondition()":"afe19fa5","liquidationConditionFactor()":"1ec83427","payDebt(uint256)":"16fc3297","profitStructSort(uint256)":"618adc77"},"id":1}