{"abi":[{"type":"constructor","inputs":[{"name":"_tokenA","type":"address","internalType":"address"},{"name":"_tokenB","type":"address","internalType":"address"}],"stateMutability":"nonpayable"},{"type":"function","name":"FEE_DENOMINATOR","inputs":[],"outputs":[{"name":"","type":"uint256","internalType":"uint256"}],"stateMutability":"view"},{"type":"function","name":"FEE_RATE","inputs":[],"outputs":[{"name":"","type":"uint256","internalType":"uint256"}],"stateMutability":"view"},{"type":"function","name":"addLiquidity","inputs":[{"name":"amountA","type":"uint256","internalType":"uint256"},{"name":"amountB","type":"uint256","internalType":"uint256"}],"outputs":[{"name":"liquidity","type":"uint256","internalType":"uint256"}],"stateMutability":"nonpayable"},{"type":"function","name":"allowance","inputs":[{"name":"owner","type":"address","internalType":"address"},{"name":"spender","type":"address","internalType":"address"}],"outputs":[{"name":"","type":"uint256","internalType":"uint256"}],"stateMutability":"view"},{"type":"function","name":"approve","inputs":[{"name":"spender","type":"address","internalType":"address"},{"name":"value","type":"uint256","internalType":"uint256"}],"outputs":[{"name":"","type":"bool","internalType":"bool"}],"stateMutability":"nonpayable"},{"type":"function","name":"balanceOf","inputs":[{"name":"account","type":"address","internalType":"address"}],"outputs":[{"name":"","type":"uint256","internalType":"uint256"}],"stateMutability":"view"},{"type":"function","name":"decimals","inputs":[],"outputs":[{"name":"","type":"uint8","internalType":"uint8"}],"stateMutability":"view"},{"type":"function","name":"getAmountOut","inputs":[{"name":"amountIn","type":"uint256","internalType":"uint256"},{"name":"reserveIn","type":"uint256","internalType":"uint256"},{"name":"reserveOut","type":"uint256","internalType":"uint256"}],"outputs":[{"name":"amountOut","type":"uint256","internalType":"uint256"}],"stateMutability":"pure"},{"type":"function","name":"getAmountOutAtoB","inputs":[{"name":"amountA","type":"uint256","internalType":"uint256"}],"outputs":[{"name":"","type":"uint256","internalType":"uint256"}],"stateMutability":"view"},{"type":"function","name":"getAmountOutBtoA","inputs":[{"name":"amountB","type":"uint256","internalType":"uint256"}],"outputs":[{"name":"","type":"uint256","internalType":"uint256"}],"stateMutability":"view"},{"type":"function","name":"getReserves","inputs":[],"outputs":[{"name":"_reserveA","type":"uint256","internalType":"uint256"},{"name":"_reserveB","type":"uint256","internalType":"uint256"}],"stateMutability":"view"},{"type":"function","name":"name","inputs":[],"outputs":[{"name":"","type":"string","internalType":"string"}],"stateMutability":"view"},{"type":"function","name":"removeLiquidity","inputs":[{"name":"liquidity","type":"uint256","internalType":"uint256"}],"outputs":[{"name":"amountA","type":"uint256","internalType":"uint256"},{"name":"amountB","type":"uint256","internalType":"uint256"}],"stateMutability":"nonpayable"},{"type":"function","name":"reserveA","inputs":[],"outputs":[{"name":"","type":"uint256","internalType":"uint256"}],"stateMutability":"view"},{"type":"function","name":"reserveB","inputs":[],"outputs":[{"name":"","type":"uint256","internalType":"uint256"}],"stateMutability":"view"},{"type":"function","name":"spotPrice","inputs":[],"outputs":[{"name":"price","type":"uint256","internalType":"uint256"}],"stateMutability":"view"},{"type":"function","name":"swap","inputs":[{"name":"_tokenIn","type":"address","internalType":"address"},{"name":"amountIn","type":"uint256","internalType":"uint256"},{"name":"minAmountOut","type":"uint256","internalType":"uint256"}],"outputs":[{"name":"amountOut","type":"uint256","internalType":"uint256"}],"stateMutability":"nonpayable"},{"type":"function","name":"symbol","inputs":[],"outputs":[{"name":"","type":"string","internalType":"string"}],"stateMutability":"view"},{"type":"function","name":"tokenA","inputs":[],"outputs":[{"name":"","type":"address","internalType":"contract IERC20"}],"stateMutability":"view"},{"type":"function","name":"tokenB","inputs":[],"outputs":[{"name":"","type":"address","internalType":"contract IERC20"}],"stateMutability":"view"},{"type":"function","name":"totalSupply","inputs":[],"outputs":[{"name":"","type":"uint256","internalType":"uint256"}],"stateMutability":"view"},{"type":"function","name":"transfer","inputs":[{"name":"to","type":"address","internalType":"address"},{"name":"value","type":"uint256","internalType":"uint256"}],"outputs":[{"name":"","type":"bool","internalType":"bool"}],"stateMutability":"nonpayable"},{"type":"function","name":"transferFrom","inputs":[{"name":"from","type":"address","internalType":"address"},{"name":"to","type":"address","internalType":"address"},{"name":"value","type":"uint256","internalType":"uint256"}],"outputs":[{"name":"","type":"bool","internalType":"bool"}],"stateMutability":"nonpayable"},{"type":"event","name":"AddLiquidity","inputs":[{"name":"provider","type":"address","indexed":true,"internalType":"address"},{"name":"amountA","type":"uint256","indexed":false,"internalType":"uint256"},{"name":"amountB","type":"uint256","indexed":false,"internalType":"uint256"},{"name":"liquidity","type":"uint256","indexed":false,"internalType":"uint256"}],"anonymous":false},{"type":"event","name":"Approval","inputs":[{"name":"owner","type":"address","indexed":true,"internalType":"address"},{"name":"spender","type":"address","indexed":true,"internalType":"address"},{"name":"value","type":"uint256","indexed":false,"internalType":"uint256"}],"anonymous":false},{"type":"event","name":"RemoveLiquidity","inputs":[{"name":"provider","type":"address","indexed":true,"internalType":"address"},{"name":"amountA","type":"uint256","indexed":false,"internalType":"uint256"},{"name":"amountB","type":"uint256","indexed":false,"internalType":"uint256"},{"name":"liquidity","type":"uint256","indexed":false,"internalType":"uint256"}],"anonymous":false},{"type":"event","name":"Swap","inputs":[{"name":"user","type":"address","indexed":true,"internalType":"address"},{"name":"tokenIn","type":"address","indexed":true,"internalType":"address"},{"name":"amountIn","type":"uint256","indexed":false,"internalType":"uint256"},{"name":"tokenOut","type":"address","indexed":true,"internalType":"address"},{"name":"amountOut","type":"uint256","indexed":false,"internalType":"uint256"}],"anonymous":false},{"type":"event","name":"Transfer","inputs":[{"name":"from","type":"address","indexed":true,"internalType":"address"},{"name":"to","type":"address","indexed":true,"internalType":"address"},{"name":"value","type":"uint256","indexed":false,"internalType":"uint256"}],"anonymous":false},{"type":"error","name":"ERC20InsufficientAllowance","inputs":[{"name":"spender","type":"address","internalType":"address"},{"name":"allowance","type":"uint256","internalType":"uint256"},{"name":"needed","type":"uint256","internalType":"uint256"}]},{"type":"error","name":"ERC20InsufficientBalance","inputs":[{"name":"sender","type":"address","internalType":"address"},{"name":"balance","type":"uint256","internalType":"uint256"},{"name":"needed","type":"uint256","internalType":"uint256"}]},{"type":"error","name":"ERC20InvalidApprover","inputs":[{"name":"approver","type":"address","internalType":"address"}]},{"type":"error","name":"ERC20InvalidReceiver","inputs":[{"name":"receiver","type":"address","internalType":"address"}]},{"type":"error","name":"ERC20InvalidSender","inputs":[{"name":"sender","type":"address","internalType":"address"}]},{"type":"error","name":"ERC20InvalidSpender","inputs":[{"name":"spender","type":"address","internalType":"address"}]}],"bytecode":{"object":"0x608060405234801561000f575f5ffd5b50604051612b23380380612b2383398181016040528101906100319190610212565b6040518060400160405280600c81526020017f414d4d204c5020546f6b656e00000000000000000000000000000000000000008152506040518060400160405280600281526020017f4c5000000000000000000000000000000000000000000000000000000000000081525081600390816100ac919061048d565b5080600490816100bc919061048d565b5050508073ffffffffffffffffffffffffffffffffffffffff168273ffffffffffffffffffffffffffffffffffffffff160361012d576040517f08c379a0000000000000000000000000000000000000000000000000000000008152600401610124906105b6565b60405180910390fd5b8160055f6101000a81548173ffffffffffffffffffffffffffffffffffffffff021916908373ffffffffffffffffffffffffffffffffffffffff1602179055508060065f6101000a81548173ffffffffffffffffffffffffffffffffffffffff021916908373ffffffffffffffffffffffffffffffffffffffff16021790555050506105d4565b5f5ffd5b5f73ffffffffffffffffffffffffffffffffffffffff82169050919050565b5f6101e1826101b8565b9050919050565b6101f1816101d7565b81146101fb575f5ffd5b50565b5f8151905061020c816101e8565b92915050565b5f5f60408385031215610228576102276101b4565b5b5f610235858286016101fe565b9250506020610246858286016101fe565b9150509250929050565b5f81519050919050565b7f4e487b71000000000000000000000000000000000000000000000000000000005f52604160045260245ffd5b7f4e487b71000000000000000000000000000000000000000000000000000000005f52602260045260245ffd5b5f60028204905060018216806102cb57607f821691505b6020821081036102de576102dd610287565b5b50919050565b5f819050815f5260205f209050919050565b5f6020601f8301049050919050565b5f82821b905092915050565b5f600883026103407fffffffffffffffffffffffffffffffffffffffffffffffffffffffffffffffff82610305565b61034a8683610305565b95508019841693508086168417925050509392505050565b5f819050919050565b5f819050919050565b5f61038e61038961038484610362565b61036b565b610362565b9050919050565b5f819050919050565b6103a783610374565b6103bb6103b382610395565b848454610311565b825550505050565b5f5f905090565b6103d26103c3565b6103dd81848461039e565b505050565b5b81811015610400576103f55f826103ca565b6001810190506103e3565b5050565b601f82111561044557610416816102e4565b61041f846102f6565b8101602085101561042e578190505b61044261043a856102f6565b8301826103e2565b50505b505050565b5f82821c905092915050565b5f6104655f198460080261044a565b1980831691505092915050565b5f61047d8383610456565b9150826002028217905092915050565b61049682610250565b67ffffffffffffffff8111156104af576104ae61025a565b5b6104b982546102b4565b6104c4828285610404565b5f60209050601f8311600181146104f5575f84156104e3578287015190505b6104ed8582610472565b865550610554565b601f198416610503866102e4565b5f5b8281101561052a57848901518255600182019150602085019450602081019050610505565b868310156105475784890151610543601f891682610456565b8355505b6001600288020188555050505b505050505050565b5f82825260208201905092915050565b7f73616d6520746f6b656e000000000000000000000000000000000000000000005f82015250565b5f6105a0600a8361055c565b91506105ab8261056c565b602082019050919050565b5f6020820190508181035f8301526105cd81610594565b9050919050565b612542806105e15f395ff3fe608060405234801561000f575f5ffd5b506004361061014b575f3560e01c8063398482d8116100c15780639f1d0f591161007a5780639f1d0f59146103cd578063a9059cbb146103fd578063d73792a91461042d578063dc5fa6c51461044b578063dd62ed3e14610469578063ecfc31cf146104995761014b565b8063398482d8146102e25780635f64b55b1461030057806370a082311461031e57806395d89b411461034e5780639c8f9f231461036c5780639cd441da1461039d5761014b565b806318160ddd1161011357806318160ddd1461020a57806319e36f3b1461022857806323b872dd1461024657806325c5c975146102765780632d11c58a146102a6578063313ce567146102c45761014b565b8063054d50d41461014f57806306fdde031461017f5780630902f1ac1461019d578063095ea7b3146101bc5780630fc63d10146101ec575b5f5ffd5b61016960048036038101906101649190611a7f565b6104c9565b6040516101769190611ade565b60405180910390f35b6101876105af565b6040516101949190611b67565b60405180910390f35b6101a561063f565b6040516101b3929190611b87565b60405180910390f35b6101d660048036038101906101d19190611c08565b61064f565b6040516101e39190611c60565b60405180910390f35b6101f4610671565b6040516102019190611cd4565b60405180910390f35b610212610696565b60405161021f9190611ade565b60405180910390f35b61023061069f565b60405161023d9190611ade565b60405180910390f35b610260600480360381019061025b9190611ced565b6106a5565b60405161026d9190611c60565b60405180910390f35b610290600480360381019061028b9190611d3d565b6106d3565b60405161029d9190611ade565b60405180910390f35b6102ae6106ea565b6040516102bb9190611ade565b60405180910390f35b6102cc6106ef565b6040516102d99190611d83565b60405180910390f35b6102ea6106f7565b6040516102f79190611ade565b60405180910390f35b610308610764565b6040516103159190611cd4565b60405180910390f35b61033860048036038101906103339190611d9c565b610789565b6040516103459190611ade565b60405180910390f35b6103566107ce565b6040516103639190611b67565b60405180910390f35b61038660048036038101906103819190611d3d565b61085e565b604051610394929190611b87565b60405180910390f35b6103b760048036038101906103b29190611dc7565b610afc565b6040516103c49190611ade565b60405180910390f35b6103e760048036038101906103e29190611e05565b610dc7565b6040516103f49190611ade565b60405180910390f35b61041760048036038101906104129190611c08565b611270565b6040516104249190611c60565b60405180910390f35b610435611292565b6040516104429190611ade565b60405180910390f35b610453611298565b6040516104609190611ade565b60405180910390f35b610483600480360381019061047e9190611e55565b61129e565b6040516104909190611ade565b60405180910390f35b6104b360048036038101906104ae9190611d3d565b611320565b6040516104c09190611ade565b60405180910390f35b5f5f841161050c576040517f08c379a000000000000000000000000000000000000000000000000000000000815260040161050390611edd565b60405180910390fd5b5f8311801561051a57505f82115b610559576040517f08c379a000000000000000000000000000000000000000000000000000000000815260040161055090611f45565b60405180910390fd5b5f60036103e86105699190611f90565b856105749190611fc3565b9050806103e8856105859190611fc3565b61058f9190612004565b818461059b9190611fc3565b6105a59190612064565b9150509392505050565b6060600380546105be906120c1565b80601f01602080910402602001604051908101604052809291908181526020018280546105ea906120c1565b80156106355780601f1061060c57610100808354040283529160200191610635565b820191905f5260205f20905b81548152906001019060200180831161061857829003601f168201915b5050505050905090565b5f5f600754915060085490509091565b5f5f610659611337565b905061066681858561133e565b600191505092915050565b60055f9054906101000a900473ffffffffffffffffffffffffffffffffffffffff1681565b5f600254905090565b60085481565b5f5f6106af611337565b90506106bc858285611350565b6106c78585856113e3565b60019150509392505050565b5f6106e3826007546008546104c9565b9050919050565b600381565b5f6012905090565b5f5f6007541161073c576040517f08c379a000000000000000000000000000000000000000000000000000000000815260040161073390611f45565b60405180910390fd5b600754670de0b6b3a76400006008546107559190611fc3565b61075f9190612064565b905090565b60065f9054906101000a900473ffffffffffffffffffffffffffffffffffffffff1681565b5f5f5f8373ffffffffffffffffffffffffffffffffffffffff1673ffffffffffffffffffffffffffffffffffffffff1681526020019081526020015f20549050919050565b6060600480546107dd906120c1565b80601f0160208091040260200160405190810160405280929190818152602001828054610809906120c1565b80156108545780601f1061082b57610100808354040283529160200191610854565b820191905f5260205f20905b81548152906001019060200180831161083757829003601f168201915b5050505050905090565b5f5f5f83116108a2576040517f08c379a00000000000000000000000000000000000000000000000000000000081526004016108999061213b565b60405180910390fd5b5f6108ab610696565b905080600754856108bc9190611fc3565b6108c69190612064565b925080600854856108d79190611fc3565b6108e19190612064565b91505f831180156108f157505f82115b610930576040517f08c379a0000000000000000000000000000000000000000000000000000000008152600401610927906121a3565b60405180910390fd5b61093a33856114d3565b8260075f82825461094b9190611f90565b925050819055508160085f8282546109639190611f90565b9250508190555060055f9054906101000a900473ffffffffffffffffffffffffffffffffffffffff1673ffffffffffffffffffffffffffffffffffffffff1663a9059cbb33856040518363ffffffff1660e01b81526004016109c69291906121d0565b6020604051808303815f875af11580156109e2573d5f5f3e3d5ffd5b505050506040513d601f19601f82011682018060405250810190610a069190612221565b5060065f9054906101000a900473ffffffffffffffffffffffffffffffffffffffff1673ffffffffffffffffffffffffffffffffffffffff1663a9059cbb33846040518363ffffffff1660e01b8152600401610a639291906121d0565b6020604051808303815f875af1158015610a7f573d5f5f3e3d5ffd5b505050506040513d601f19601f82011682018060405250810190610aa39190612221565b503373ffffffffffffffffffffffffffffffffffffffff167f59c3a0b60c6ab7deb62e1440c9e72441db6db7dfe514dba8cb18e60c0d896efa848487604051610aee9392919061224c565b60405180910390a250915091565b5f5f83118015610b0b57505f82115b610b4a576040517f08c379a0000000000000000000000000000000000000000000000000000000008152600401610b41906122cb565b60405180910390fd5b60055f9054906101000a900473ffffffffffffffffffffffffffffffffffffffff1673ffffffffffffffffffffffffffffffffffffffff166323b872dd3330866040518463ffffffff1660e01b8152600401610ba8939291906122e9565b6020604051808303815f875af1158015610bc4573d5f5f3e3d5ffd5b505050506040513d601f19601f82011682018060405250810190610be89190612221565b5060065f9054906101000a900473ffffffffffffffffffffffffffffffffffffffff1673ffffffffffffffffffffffffffffffffffffffff166323b872dd3330856040518463ffffffff1660e01b8152600401610c47939291906122e9565b6020604051808303815f875af1158015610c63573d5f5f3e3d5ffd5b505050506040513d601f19601f82011682018060405250810190610c879190612221565b505f610c91610696565b90505f8103610cb557610cae8385610ca99190611fc3565b611552565b9150610cf2565b610cef6007548286610cc79190611fc3565b610cd19190612064565b6008548386610ce09190611fc3565b610cea9190612064565b6115c9565b91505b5f8211610d34576040517f08c379a0000000000000000000000000000000000000000000000000000000008152600401610d2b90612368565b60405180910390fd5b610d3e33836115e1565b8360075f828254610d4f9190612004565b925050819055508260085f828254610d679190612004565b925050819055503373ffffffffffffffffffffffffffffffffffffffff167fbeb3885786d637a474cbc287c0a44587231633a077f0bd30354d5a4b18996fce858585604051610db89392919061224c565b60405180910390a25092915050565b5f60055f9054906101000a900473ffffffffffffffffffffffffffffffffffffffff1673ffffffffffffffffffffffffffffffffffffffff168473ffffffffffffffffffffffffffffffffffffffff161480610e6f575060065f9054906101000a900473ffffffffffffffffffffffffffffffffffffffff1673ffffffffffffffffffffffffffffffffffffffff168473ffffffffffffffffffffffffffffffffffffffff16145b610eae576040517f08c379a0000000000000000000000000000000000000000000000000000000008152600401610ea5906123d0565b60405180910390fd5b5f8311610ef0576040517f08c379a0000000000000000000000000000000000000000000000000000000008152600401610ee790611edd565b60405180910390fd5b5f60055f9054906101000a900473ffffffffffffffffffffffffffffffffffffffff1673ffffffffffffffffffffffffffffffffffffffff168573ffffffffffffffffffffffffffffffffffffffff161490505f5f5f5f84610f9b5760065f9054906101000a900473ffffffffffffffffffffffffffffffffffffffff1660055f9054906101000a900473ffffffffffffffffffffffffffffffffffffffff16600854600754610fe6565b60055f9054906101000a900473ffffffffffffffffffffffffffffffffffffffff1660065f9054906101000a900473ffffffffffffffffffffffffffffffffffffffff166007546008545b93509350935093508373ffffffffffffffffffffffffffffffffffffffff166323b872dd33308b6040518463ffffffff1660e01b815260040161102b939291906122e9565b6020604051808303815f875af1158015611047573d5f5f3e3d5ffd5b505050506040513d601f19601f8201168201806040525081019061106b9190612221565b506110778883836104c9565b9550868610156110bc576040517f08c379a00000000000000000000000000000000000000000000000000000000081526004016110b390612438565b60405180910390fd5b8086106110fe576040517f08c379a00000000000000000000000000000000000000000000000000000000081526004016110f5906124a0565b60405180910390fd5b8415611139578760075f8282546111159190612004565b925050819055508560085f82825461112d9190611f90565b9250508190555061116a565b8760085f82825461114a9190612004565b925050819055508560075f8282546111629190611f90565b925050819055505b8273ffffffffffffffffffffffffffffffffffffffff1663a9059cbb33886040518363ffffffff1660e01b81526004016111a59291906121d0565b6020604051808303815f875af11580156111c1573d5f5f3e3d5ffd5b505050506040513d601f19601f820116820180604052508101906111e59190612221565b508273ffffffffffffffffffffffffffffffffffffffff168973ffffffffffffffffffffffffffffffffffffffff163373ffffffffffffffffffffffffffffffffffffffff167f5380cf97d8f645d3c4896da60c053458dca03a3a31cec642ac80e1ddf0d8d02a8b8a60405161125c929190611b87565b60405180910390a450505050509392505050565b5f5f61127a611337565b90506112878185856113e3565b600191505092915050565b6103e881565b60075481565b5f60015f8473ffffffffffffffffffffffffffffffffffffffff1673ffffffffffffffffffffffffffffffffffffffff1681526020019081526020015f205f8373ffffffffffffffffffffffffffffffffffffffff1673ffffffffffffffffffffffffffffffffffffffff1681526020019081526020015f2054905092915050565b5f611330826008546007546104c9565b9050919050565b5f33905090565b61134b8383836001611660565b505050565b5f61135b848461129e565b90507fffffffffffffffffffffffffffffffffffffffffffffffffffffffffffffffff8110156113dd57818110156113ce578281836040517ffb8f41b20000000000000000000000000000000000000000000000000000000081526004016113c5939291906124be565b60405180910390fd5b6113dc84848484035f611660565b5b50505050565b5f73ffffffffffffffffffffffffffffffffffffffff168373ffffffffffffffffffffffffffffffffffffffff1603611453575f6040517f96c6fd1e00000000000000000000000000000000000000000000000000000000815260040161144a91906124f3565b60405180910390fd5b5f73ffffffffffffffffffffffffffffffffffffffff168273ffffffffffffffffffffffffffffffffffffffff16036114c3575f6040517fec442f050000000000000000000000000000000000000000000000000000000081526004016114ba91906124f3565b60405180910390fd5b6114ce83838361182f565b505050565b5f73ffffffffffffffffffffffffffffffffffffffff168273ffffffffffffffffffffffffffffffffffffffff1603611543575f6040517f96c6fd1e00000000000000000000000000000000000000000000000000000000815260040161153a91906124f3565b60405180910390fd5b61154e825f8361182f565b5050565b5f60038211156115b7578190505f600160028461156f9190612064565b6115799190612004565b90505b818110156115b15780915060028182856115969190612064565b6115a09190612004565b6115aa9190612064565b905061157c565b506115c4565b5f82146115c357600190505b5b919050565b5f8183106115d757816115d9565b825b905092915050565b5f73ffffffffffffffffffffffffffffffffffffffff168273ffffffffffffffffffffffffffffffffffffffff1603611651575f6040517fec442f0500000000000000000000000000000000000000000000000000000000815260040161164891906124f3565b60405180910390fd5b61165c5f838361182f565b5050565b5f73ffffffffffffffffffffffffffffffffffffffff168473ffffffffffffffffffffffffffffffffffffffff16036116d0575f6040517fe602df050000000000000000000000000000000000000000000000000000000081526004016116c791906124f3565b60405180910390fd5b5f73ffffffffffffffffffffffffffffffffffffffff168373ffffffffffffffffffffffffffffffffffffffff1603611740575f6040517f94280d6200000000000000000000000000000000000000000000000000000000815260040161173791906124f3565b60405180910390fd5b8160015f8673ffffffffffffffffffffffffffffffffffffffff1673ffffffffffffffffffffffffffffffffffffffff1681526020019081526020015f205f8573ffffffffffffffffffffffffffffffffffffffff1673ffffffffffffffffffffffffffffffffffffffff1681526020019081526020015f20819055508015611829578273ffffffffffffffffffffffffffffffffffffffff168473ffffffffffffffffffffffffffffffffffffffff167f8c5be1e5ebec7d5bd14f71427d1e84f3dd0314c0f7b2291e5b200ac8c7c3b925846040516118209190611ade565b60405180910390a35b50505050565b5f73ffffffffffffffffffffffffffffffffffffffff168373ffffffffffffffffffffffffffffffffffffffff160361187f578060025f8282546118739190612004565b9250508190555061194d565b5f5f5f8573ffffffffffffffffffffffffffffffffffffffff1673ffffffffffffffffffffffffffffffffffffffff1681526020019081526020015f2054905081811015611908578381836040517fe450d38c0000000000000000000000000000000000000000000000000000000081526004016118ff939291906124be565b60405180910390fd5b8181035f5f8673ffffffffffffffffffffffffffffffffffffffff1673ffffffffffffffffffffffffffffffffffffffff1681526020019081526020015f2081905550505b5f73ffffffffffffffffffffffffffffffffffffffff168273ffffffffffffffffffffffffffffffffffffffff1603611994578060025f82825403925050819055506119de565b805f5f8473ffffffffffffffffffffffffffffffffffffffff1673ffffffffffffffffffffffffffffffffffffffff1681526020019081526020015f205f82825401925050819055505b8173ffffffffffffffffffffffffffffffffffffffff168373ffffffffffffffffffffffffffffffffffffffff167fddf252ad1be2c89b69c2b068fc378daa952ba7f163c4a11628f55a4df523b3ef83604051611a3b9190611ade565b60405180910390a3505050565b5f5ffd5b5f819050919050565b611a5e81611a4c565b8114611a68575f5ffd5b50565b5f81359050611a7981611a55565b92915050565b5f5f5f60608486031215611a9657611a95611a48565b5b5f611aa386828701611a6b565b9350506020611ab486828701611a6b565b9250506040611ac586828701611a6b565b9150509250925092565b611ad881611a4c565b82525050565b5f602082019050611af15f830184611acf565b92915050565b5f81519050919050565b5f82825260208201905092915050565b8281835e5f83830152505050565b5f601f19601f8301169050919050565b5f611b3982611af7565b611b438185611b01565b9350611b53818560208601611b11565b611b5c81611b1f565b840191505092915050565b5f6020820190508181035f830152611b7f8184611b2f565b905092915050565b5f604082019050611b9a5f830185611acf565b611ba76020830184611acf565b9392505050565b5f73ffffffffffffffffffffffffffffffffffffffff82169050919050565b5f611bd782611bae565b9050919050565b611be781611bcd565b8114611bf1575f5ffd5b50565b5f81359050611c0281611bde565b92915050565b5f5f60408385031215611c1e57611c1d611a48565b5b5f611c2b85828601611bf4565b9250506020611c3c85828601611a6b565b9150509250929050565b5f8115159050919050565b611c5a81611c46565b82525050565b5f602082019050611c735f830184611c51565b92915050565b5f819050919050565b5f611c9c611c97611c9284611bae565b611c79565b611bae565b9050919050565b5f611cad82611c82565b9050919050565b5f611cbe82611ca3565b9050919050565b611cce81611cb4565b82525050565b5f602082019050611ce75f830184611cc5565b92915050565b5f5f5f60608486031215611d0457611d03611a48565b5b5f611d1186828701611bf4565b9350506020611d2286828701611bf4565b9250506040611d3386828701611a6b565b9150509250925092565b5f60208284031215611d5257611d51611a48565b5b5f611d5f84828501611a6b565b91505092915050565b5f60ff82169050919050565b611d7d81611d68565b82525050565b5f602082019050611d965f830184611d74565b92915050565b5f60208284031215611db157611db0611a48565b5b5f611dbe84828501611bf4565b91505092915050565b5f5f60408385031215611ddd57611ddc611a48565b5b5f611dea85828601611a6b565b9250506020611dfb85828601611a6b565b9150509250929050565b5f5f5f60608486031215611e1c57611e1b611a48565b5b5f611e2986828701611bf4565b9350506020611e3a86828701611a6b565b9250506040611e4b86828701611a6b565b9150509250925092565b5f5f60408385031215611e6b57611e6a611a48565b5b5f611e7885828601611bf4565b9250506020611e8985828601611bf4565b9150509250929050565b7f616d6f756e74496e203d203000000000000000000000000000000000000000005f82015250565b5f611ec7600c83611b01565b9150611ed282611e93565b602082019050919050565b5f6020820190508181035f830152611ef481611ebb565b9050919050565b7f6e6f206c697175696469747900000000000000000000000000000000000000005f82015250565b5f611f2f600c83611b01565b9150611f3a82611efb565b602082019050919050565b5f6020820190508181035f830152611f5c81611f23565b9050919050565b7f4e487b71000000000000000000000000000000000000000000000000000000005f52601160045260245ffd5b5f611f9a82611a4c565b9150611fa583611a4c565b9250828203905081811115611fbd57611fbc611f63565b5b92915050565b5f611fcd82611a4c565b9150611fd883611a4c565b9250828202611fe681611a4c565b91508282048414831517611ffd57611ffc611f63565b5b5092915050565b5f61200e82611a4c565b915061201983611a4c565b925082820190508082111561203157612030611f63565b5b92915050565b7f4e487b71000000000000000000000000000000000000000000000000000000005f52601260045260245ffd5b5f61206e82611a4c565b915061207983611a4c565b92508261208957612088612037565b5b828204905092915050565b7f4e487b71000000000000000000000000000000000000000000000000000000005f52602260045260245ffd5b5f60028204905060018216806120d857607f821691505b6020821081036120eb576120ea612094565b5b50919050565b7f6c6971756964697479203d2030000000000000000000000000000000000000005f82015250565b5f612125600d83611b01565b9150612130826120f1565b602082019050919050565b5f6020820190508181035f83015261215281612119565b9050919050565b7f696e73756666696369656e74206c6971756964697479206275726e65640000005f82015250565b5f61218d601d83611b01565b915061219882612159565b602082019050919050565b5f6020820190508181035f8301526121ba81612181565b9050919050565b6121ca81611bcd565b82525050565b5f6040820190506121e35f8301856121c1565b6121f06020830184611acf565b9392505050565b61220081611c46565b811461220a575f5ffd5b50565b5f8151905061221b816121f7565b92915050565b5f6020828403121561223657612235611a48565b5b5f6122438482850161220d565b91505092915050565b5f60608201905061225f5f830186611acf565b61226c6020830185611acf565b6122796040830184611acf565b949350505050565b7f616d6f756e74203d2030000000000000000000000000000000000000000000005f82015250565b5f6122b5600a83611b01565b91506122c082612281565b602082019050919050565b5f6020820190508181035f8301526122e2816122a9565b9050919050565b5f6060820190506122fc5f8301866121c1565b61230960208301856121c1565b6123166040830184611acf565b949350505050565b7f696e73756666696369656e74206c6971756964697479206d696e7465640000005f82015250565b5f612352601d83611b01565b915061235d8261231e565b602082019050919050565b5f6020820190508181035f83015261237f81612346565b9050919050565b7f696e76616c696420746f6b656e000000000000000000000000000000000000005f82015250565b5f6123ba600d83611b01565b91506123c582612386565b602082019050919050565b5f6020820190508181035f8301526123e7816123ae565b9050919050565b7f736c6970706167652065786365656465640000000000000000000000000000005f82015250565b5f612422601183611b01565b915061242d826123ee565b602082019050919050565b5f6020820190508181035f83015261244f81612416565b9050919050565b7f696e73756666696369656e74206c6971756964697479000000000000000000005f82015250565b5f61248a601683611b01565b915061249582612456565b602082019050919050565b5f6020820190508181035f8301526124b78161247e565b9050919050565b5f6060820190506124d15f8301866121c1565b6124de6020830185611acf565b6124eb6040830184611acf565b949350505050565b5f6020820190506125065f8301846121c1565b9291505056fea26469706673582212200c5b99447f34ce78a355b90293326206238d70fca51ac6dc1d3c5d3c7d04cd1064736f6c634300081e0033","linkReferences":{}},"methodIdentifiers":{"FEE_DENOMINATOR()":"d73792a9","FEE_RATE()":"2d11c58a","addLiquidity(uint256,uint256)":"9cd441da","allowance(address,address)":"dd62ed3e","approve(address,uint256)":"095ea7b3","balanceOf(address)":"70a08231","decimals()":"313ce567","getAmountOut(uint256,uint256,uint256)":"054d50d4","getAmountOutAtoB(uint256)":"25c5c975","getAmountOutBtoA(uint256)":"ecfc31cf","getReserves()":"0902f1ac","name()":"06fdde03","removeLiquidity(uint256)":"9c8f9f23","reserveA()":"dc5fa6c5","reserveB()":"19e36f3b","spotPrice()":"398482d8","swap(address,uint256,uint256)":"9f1d0f59","symbol()":"95d89b41","tokenA()":"0fc63d10","tokenB()":"5f64b55b","totalSupply()":"18160ddd","transfer(address,uint256)":"a9059cbb","transferFrom(address,address,uint256)":"23b872dd"},"id":0}