{"abi":[{"type":"receive","stateMutability":"payable"},{"type":"function","name":"depositErc20","inputs":[{"name":"_erc20","type":"address","internalType":"address"},{"name":"_amount","type":"uint256","internalType":"uint256"}],"outputs":[],"stateMutability":"nonpayable"},{"type":"function","name":"depositEth","inputs":[],"outputs":[],"stateMutability":"payable"},{"type":"function","name":"withdrawErc20","inputs":[{"name":"_erc20","type":"address","internalType":"address"},{"name":"_amount","type":"uint256","internalType":"uint256"}],"outputs":[],"stateMutability":"nonpayable"},{"type":"function","name":"withdrawEth","inputs":[{"name":"_amount","type":"uint256","internalType":"uint256"}],"outputs":[],"stateMutability":"payable"}],"bytecode":{"object":"0x6080604052348015600e575f5ffd5b506107b78061001c5f395ff3fe608060405260043610610042575f3560e01c8063439370b11461004d5780636548b40d14610057578063bd1f4b521461007f578063c311d049146100a757610049565b3661004957005b5f5ffd5b6100556100c3565b005b348015610062575f5ffd5b5061007d60048036038101906100789190610533565b610117565b005b34801561008a575f5ffd5b506100a560048036038101906100a09190610533565b610231565b005b6100c160048036038101906100bc9190610571565b610404565b005b345f5f3373ffffffffffffffffffffffffffffffffffffffff1673ffffffffffffffffffffffffffffffffffffffff1681526020019081526020015f205f82825461010e91906105c9565b92505081905550565b5f3390505f8390508073ffffffffffffffffffffffffffffffffffffffff166323b872dd8330866040518463ffffffff1660e01b815260040161015c9392919061061a565b6020604051808303815f875af1158015610178573d5f5f3e3d5ffd5b505050506040513d601f19601f8201168201806040525081019061019c9190610684565b508260015f8473ffffffffffffffffffffffffffffffffffffffff1673ffffffffffffffffffffffffffffffffffffffff1681526020019081526020015f205f8673ffffffffffffffffffffffffffffffffffffffff1673ffffffffffffffffffffffffffffffffffffffff1681526020019081526020015f205f82825461022491906105c9565b9250508190555050505050565b5f3390508160015f8373ffffffffffffffffffffffffffffffffffffffff1673ffffffffffffffffffffffffffffffffffffffff1681526020019081526020015f205f8573ffffffffffffffffffffffffffffffffffffffff1673ffffffffffffffffffffffffffffffffffffffff1681526020019081526020015f205410156102f0576040517f08c379a00000000000000000000000000000000000000000000000000000000081526004016102e790610709565b60405180910390fd5b5f8390508073ffffffffffffffffffffffffffffffffffffffff1663a9059cbb83856040518363ffffffff1660e01b815260040161032f929190610727565b6020604051808303815f875af115801561034b573d5f5f3e3d5ffd5b505050506040513d601f19601f8201168201806040525081019061036f9190610684565b508260015f8473ffffffffffffffffffffffffffffffffffffffff1673ffffffffffffffffffffffffffffffffffffffff1681526020019081526020015f205f8673ffffffffffffffffffffffffffffffffffffffff1673ffffffffffffffffffffffffffffffffffffffff1681526020019081526020015f205f8282546103f7919061074e565b9250508190555050505050565b5f3390508073ffffffffffffffffffffffffffffffffffffffff166108fc8390811502906040515f60405180830381858888f1935050505015801561044b573d5f5f3e3d5ffd5b50345f5f3373ffffffffffffffffffffffffffffffffffffffff1673ffffffffffffffffffffffffffffffffffffffff1681526020019081526020015f205f828254610497919061074e565b925050819055505050565b5f5ffd5b5f73ffffffffffffffffffffffffffffffffffffffff82169050919050565b5f6104cf826104a6565b9050919050565b6104df816104c5565b81146104e9575f5ffd5b50565b5f813590506104fa816104d6565b92915050565b5f819050919050565b61051281610500565b811461051c575f5ffd5b50565b5f8135905061052d81610509565b92915050565b5f5f60408385031215610549576105486104a2565b5b5f610556858286016104ec565b92505060206105678582860161051f565b9150509250929050565b5f60208284031215610586576105856104a2565b5b5f6105938482850161051f565b91505092915050565b7f4e487b71000000000000000000000000000000000000000000000000000000005f52601160045260245ffd5b5f6105d382610500565b91506105de83610500565b92508282019050808211156105f6576105f561059c565b5b92915050565b610605816104c5565b82525050565b61061481610500565b82525050565b5f60608201905061062d5f8301866105fc565b61063a60208301856105fc565b610647604083018461060b565b949350505050565b5f8115159050919050565b6106638161064f565b811461066d575f5ffd5b50565b5f8151905061067e8161065a565b92915050565b5f60208284031215610699576106986104a2565b5b5f6106a684828501610670565b91505092915050565b5f82825260208201905092915050565b7f3f3f3f00000000000000000000000000000000000000000000000000000000005f82015250565b5f6106f36003836106af565b91506106fe826106bf565b602082019050919050565b5f6020820190508181035f830152610720816106e7565b9050919050565b5f60408201905061073a5f8301856105fc565b610747602083018461060b565b9392505050565b5f61075882610500565b915061076383610500565b925082820390508181111561077b5761077a61059c565b5b9291505056fea2646970667358221220412fa2f508326082b63c8879139df664f5eee5f06f48512ec80a07b4be70921664736f6c634300081e0033","linkReferences":{}},"methodIdentifiers":{"depositErc20(address,uint256)":"6548b40d","depositEth()":"439370b1","withdrawErc20(address,uint256)":"bd1f4b52","withdrawEth(uint256)":"c311d049"},"id":3}