{"abi":[{"type":"receive","stateMutability":"payable"},{"type":"function","name":"depositEth","inputs":[],"outputs":[],"stateMutability":"payable"},{"type":"function","name":"withdrawEth","inputs":[{"name":"_amount","type":"uint256","internalType":"uint256"}],"outputs":[],"stateMutability":"payable"}],"bytecode":{"object":"0x6080604052348015600e575f5ffd5b5061027a8061001c5f395ff3fe60806040526004361061002c575f3560e01c8063439370b114610037578063c311d0491461004157610033565b3661003357005b5f5ffd5b61003f61005d565b005b61005b60048036038101906100569190610186565b6100b1565b005b345f5f3373ffffffffffffffffffffffffffffffffffffffff1673ffffffffffffffffffffffffffffffffffffffff1681526020019081526020015f205f8282546100a891906101de565b92505081905550565b5f3390508073ffffffffffffffffffffffffffffffffffffffff166108fc8390811502906040515f60405180830381858888f193505050501580156100f8573d5f5f3e3d5ffd5b50345f5f3373ffffffffffffffffffffffffffffffffffffffff1673ffffffffffffffffffffffffffffffffffffffff1681526020019081526020015f205f8282546101449190610211565b925050819055505050565b5f5ffd5b5f819050919050565b61016581610153565b811461016f575f5ffd5b50565b5f813590506101808161015c565b92915050565b5f6020828403121561019b5761019a61014f565b5b5f6101a884828501610172565b91505092915050565b7f4e487b71000000000000000000000000000000000000000000000000000000005f52601160045260245ffd5b5f6101e882610153565b91506101f383610153565b925082820190508082111561020b5761020a6101b1565b5b92915050565b5f61021b82610153565b915061022683610153565b925082820390508181111561023e5761023d6101b1565b5b9291505056fea26469706673582212200805f0b4dd3469bdc2c2f7645ea3001ed46ca5d25370ab9567643ded0a3fbcd764736f6c634300081e0033","linkReferences":{}},"methodIdentifiers":{"depositEth()":"439370b1","withdrawEth(uint256)":"c311d049"},"id":2}